S01A00004C45442043756265203878387838203531322E7372656326
S11300000C945B000C9478000C9478000C947800A9
S11300100C94D1180C9478000C9478000C9478000B
S11300200C9478000C9478000C9478000C9478006C
S11300300C9478000C9478000C9478000C9478005C
S11300400C9478000C9478000C9478000C9478004C
S11300500C947800B116B616BF16D816DF16EC1637
S1130060EF16181740176417AD17B217BF17C41748
S1130070F51744184D1855185C1864186C18731843
S11300807A1887188F1892189F1807060504030218
S1130090010010203040506070717273747576776F
S11300A0675747372717040312213040516273748E
S11300B065564737261511241FBECFE5D8E0DEBFAD
S11300C0CDBF10E0A0E6B0E0ECE1F4E302C005909F
S11300D00D92AA39B107D9F721E0AAE9B0E001C02D
S11300E01D92AC31B207E1F70E94B3180C940C1ABC
S11300F00C940000089748F46830710540F481E0DE
S11301004830510528F080E0089580E0089580E0AB
S11301100895FF920F931F93CF93DF93F82EEB0173
S11301208A010E947A008823A9F0000F111F000F92
S1130130111F000F111FC00FD11FC652DF4F48817E
S113014021E030E0C90102C0880F991FFA94E2F758
S1130150842B8883DF91CF911F910F91FF90089595
S1130160FF920F931F93CF93DF93F82EEB018A0135
S11301700E947A008823B1F0000F111F000F111F95
S1130180000F111FC00FD11FC652DF4F488121E05D
S113019030E0C90102C0880F991FFA94E2F78095F4
S11301A084238883DF91CF911F910F91FF9008954D
S11301B0FF920F931F93CF93DF93F82EEB018A01E5
S11301C00E947A00882399F0000F111F000F111F5D
S11301D0000F111FC00FD11FC652DF4F288130E01E
S11301E0C90102C095958795FA94E2F78170DF9171
S11301F0CF911F910F91FF9008952130310519F48B
S11302000E94890008950E94B0000895FF920F9300
S11302101F93CF93DF93F82EEB018A010E947A009B
S11302208823A9F0000F111F000F111F000F111FC9
S1130230C00FD11FC652DF4F488121E030E0C90111
S113024002C0880F991FFA94E2F784278883DF910C
S1130250CF911F910F91FF90089588309105A0F4DC
S113026020E030E0880F991F880F991F880F991F8D
S11302704FEFFC01E20FF31FE652FF4F40832F5F65
S11302803F4F28303105A9F708958830910528F5A6
S113029031E001C0330F8A95EAF760E070E0B0E026
S11302A0A0E011C0FA01E80FF91FE652FF4F2081C8
S11302B0232B2083019688309105A1F76F5F7F4F30
S11302C06830710551F08B2F9A2FAB01440F551FE5
S11302D0440F551F440F551FE5CF089588309105ED
S11302E0A0F420E030E04FEFF901EE0FFF1FEE0F16
S11302F0FF1FEE0FFF1FE80FF91FE652FF4F408369
S11303002F5F3F4F2830310579F70895893749F039
S11303108A3761F0883771F4862F90E00E94450196
S11303200895862F90E00E946E010895862F90E034
S11303300E942D01089560E070E0A0E090E010C0FC
S1130340FA01E20FF31FE652FF4F80832F5F3F4F06
S113035028303105A9F76F5F7F4F6830710551F080
S11303602A2F392FAB01440F551F440F551F440F3B
S1130370551FE6CF08956F5F7F4F2FEF30E0A9013F
S113038002C0440F551F6A95E2F74095B90102C0B7
S1130390660F771F8A95E2F7CB01842308956F9245
S11303A07F928F929F92AF92BF92CF92DF92EF9201
S11303B0FF920F931F93CF93DF936C015B01EA01CC
S11303C039014701281739072CF4982F8D2D69011D
S11303D0692E782E0A151B050CF4A6C08C169D06F2
S11303E00CF0A6C09C2F8D2FE401892E982EA0C05E
S11303F0B301C6010E94BB019E01220F331F220FCD
S1130400331F220F331FF901E00FF11FE652FF4F94
S113041080832A0D3B1DF901E652FF4F808394012E
S1130420220F331F220F331F220F331FF901E00F56
S1130430F11FE652FF4F80832A0D3B1DF901E6525E
S1130440FF4F80839A2D8B2D5801092F182F75018A
S1130450AE01B701C6010E948900A401B701C6011B
S11304600E948900AE01B701C3010E948900A40162
S1130470B701C3010E9489008FEFE81AF80A0E152C
S11304801F0534F78C169D060CF47DC0AE01B50132
S1130490C6010E948900AE01B801C6010E9489000C
S11304A0AE01B501C3010E948900AE01B801C301C8
S11304B00E94890021968C169D0644F764C0B301FE
S11304C0C6010E94BB019401220F331F220F331F68
S11304D0220F331FF901E00FF11FE652FF4F808313
S11304E02A0D3B1DF901E652FF4F80839E01220F26
S11304F0331F220F331F220F331FF901E00FF11FA7
S1130500E652FF4F80832A0D3B1DF901E652FF4F4F
S113051080839C2F8D2FE401892E982E9A2D8B2D6C
S11305205801092F182F93CF8C169D0644F260CFE3
S1130530B301C6010E94BB019E01220F331F220F8B
S1130540331F220F331FF901EA0DFB1DE652FF4F43
S11305508083200F311FF901E652FF4F80839401FD
S1130560220F331F220F331F220F331FF901EA0D0D
S1130570FB1DE652FF4F8083200F311FF901E65225
S1130580FF4F808364CFDF91CF911F910F91FF9034
S1130590EF90DF90CF90BF90AF909F908F907F901F
S11305A06F900895282F30E0982F92959695977024
S11305B09270482F441F4427441F942B482F46957C
S11305C0469546954470942B86958870982BB9016E
S11305D0660F771F862F8071892BB901660F771FED
S11305E0660F771F660F771F6072862BA901440F71
S11305F0551F42955295507F5427407F542740748D
S1130600842B3695322F222737952795822B0895F0
S11306109C01892B61F40895000000000000000093
S1130620000000009150C1F72150310911F09AE502
S1130630F3CF08952F923F924F925F926F927F92E1
S11306408F929F92AF92BF92CF92DF92EF92FF92DE
S11306500F931F93CF93DF93182F5B01C12CD12CE1
S11306600F2EF7E08F2E912CF02D00E0412C502E10
S11306704FEFA416B40621F07401EC18FD0801C074
S1130680760197012F5F3F4FC70101974FEFA416E3
S1130690B40619F4622E732E02C0682E792E212C12
S11306A0302E3AC01A3771F4462D572DBE01C101C0
S11306B00E94D800282F30E0A701BE01C1010E948A
S11306C0FD001FC0193771F4AE01662D772DC101ED
S11306D00E94D800282F30E0AE01B701C1010E946A
S11306E0FD000FC0183769F4A101BE01862D972DB6
S11306F00E94D800282F30E0A101BE01C7010E944A
S1130700FD002196C830D10569F68FEF281A380A02
S113071048E02416310419F0C42DD52DC3CF8FEF32
S1130720C81AD80A48E0C416D10409F0A1CFAB20F6
S1130730A09419F0E12CF12C05C00F2EF7E0EF2E58
S1130740F12CF02DA12CB12CC12CD12C22C01A37A4
S113075031F4A701BE01C5010E94B0000FC01937D2
S113076031F4AE01B701C5010E94B00007C01837CB
S113077029F4A501BE01C7010E94B0002196C8302A
S1130780D10529F74FEFA41AB40A88E0A816B104DA
S113079019F0CC2DDD2DDBCFDF91CF911F910F917F
S11307A0FF90EF90DF90CF90BF90AF909F908F908D
S11307B07F906F905F904F903F902F9008954F924D
S11307C05F926F927F928F929F92AF92BF92CF92DD
S11307D0DF92EF92FF920F931F93CF93DF93CDB7E6
S11307E0DEB7C054D1090FB6F894DEBF0FBECDBF3B
S11307F080E4EAEDF0E0DE01119601900D928A9515
S1130800E1F780E00E949B01CE0101964C01A12CEE
S1130810B12C0F2EF7E04F2EF02D512C612C712CA2
S11308202AC0F701808190E0002E02C0959587953B
S11308300A94E2F780FF06C0A501B601802F912F2C
S11308400E9489000F5F1F4F0830110551F7FFEF19
S1130850EF1AFF0A81E0C81AD10818F0062D172DE7
S1130860E0CFEFEFAE1ABE0AF8E08F0E911C88E0DD
S1130870A816B10421F07401C42CD52CEFCFC05CB0
S1130880DF4F0FB6F894DEBF0FBECDBFDF91CF911F
S11308901F910F91FF90EF90DF90CF90BF90AF909A
S11308A09F908F907F906F905F904F9008956F927C
S11308B07F928F929F92AF92BF92CF92DF92EF92EC
S11308C0FF920F931F93CF93DF93CDB7DEB7C0543E
S11308D0D1090FB6F894DEBF0FBECDBF80E4EAEDB8
S11308E0F0E0DE01119601900D928A95E1F780E027
S11308F00E949B01CE0101964C01A12CB12C612CCC
S1130900712C1AC0F70181917F010E94D202F60175
S1130910E00FF11FE652FF4F80830F5F1F4F083037
S1130920110581F7FFEFAF1ABF0A88E0880E911C0A
S113093098E0A916B10459F07401062D172D65012C
S1130940CC0CDD1CCC0CDD1CCC0CDD1CDBCFC05C6A
S1130950DF4F0FB6F894DEBF0FBECDBFDF91CF914E
S11309601F910F91FF90EF90DF90CF90BF90AF90C9
S11309709F908F907F906F900895FF920F931F9395
S1130980CF93DF93CDB7DEB7C054D1090FB6F89437
S1130990DEBF0FBECDBF80E4EAEDF0E0DE011196CC
S11309A001900D928A95E1F78E010F5F1F4F40E091
S11309B050E00F2EF7E0FF2EF02D30E019C02C91FF
S11309C0FC01EE0FFF1FEE0FFF1FEE0FFF1FE40FE2
S11309D0F51FE652FF4F208318960197A617B70715
S11309E071F74F5F5F4F0F5F1F4F4830510539F06C
S11309F0B801605C7F4FD8018F2D932FE0CFC05C8E
S1130A00DF4F0FB6F894DEBF0FBECDBFDF91CF919D
S1130A101F910F91FF9008952F923F924F925F92F2
S1130A206F927F928F929F92AF92BF92CF92DF92FA
S1130A30EF92FF920F931F93CF93DF9300D000D0D8
S1130A401F92CDB7DEB74C016894442441F8512C71
S1130A506894CC24C7F8D12C612C712C0F2EF6E0AD
S1130A603F2EF02D212C3FC0BE016F5F7F4F0E94AF
S1130A705F16CE0101967C01A42CB52C23C0F7018E
S1130A80808190E09601002E02C0359527950A9446
S1130A90E2F782239323892B31F0A801B50187E083
S1130AA090E00E9489000F5F1F4F0830110539F74D
S1130AB0FFEFEF1AFF0A8FEFA81AB80A97E0A916FA
S1130AC0B10419F0062D172DDACF032D122D88EE5F
S1130AD093E00E9408036FEF7FEF88E70E941A03F8
S1130AE001501109A1F7F40181914F018111BCCF8B
S1130AF008E010E088EE93E00E9408036FEF7FEFB8
S1130B0088E70E941A0301501109A1F70F900F9072
S1130B100F900F900F90DF91CF911F910F91FF9045
S1130B20EF90DF90CF90BF90AF909F908F907F9089
S1130B306F905F904F903F902F900895EF92FF92A7
S1130B400F931F93CF93DF93082FC0E0162FD72F57
S1130B5080E00E949B016C2F802F0E948601F12E61
S1130B60ED2E812F9D2F0E940803CF5FC83081F79F
S1130B70C7E080E00E949B016C2F802F0E948601B9
S1130B808F2D9E2D0E940803C15098F7DF91CF91BD
S1130B901F910F91FF90EF9008956F927F928F9223
S1130BA09F92AF92BF92CF92DF92EF92FF920F93F8
S1130BB01F93CF93DF9380E00E949B016894AA2443
S1130BC0A1F8B12C0F2EFEEE6F2EF02D6894772431
S1130BD071F80F2EFAE0EF2EF12CF02D08EE13E051
S1130BE00F2EF1EF8F2E99249A94F02D0F2EFFEEF5
S1130BF0CF2EF2E0DF2EF02D43C080E00E949B0157
S1130C00CE010E9408038FEF0E949B0184E690E0CE
S1130C100E940803CE01B7010E941719C8010E945F
S1130C201719C401861B970BC80FD91F1C161D0664
S1130C3024F3C8010E940803C62DD72D80E00E942A
S1130C409B01C6018C1B9D0B0E9408038FEF0E9421
S1130C509B0184E690E00E940803CE01B7010E9444
S1130C601719C8010E941719C401861B970BC80FD6
S1130C70D91F1C161D0614F381E0A81AB10819F037
S1130C80C62DD72DBACFDF91CF911F910F91FF9031
S1130C90EF90DF90CF90BF90AF909F908F907F9018
S1130CA06F9008952F923F924F925F926F927F922E
S1130CB08F929F92AF92BF92CF92DF92EF92FF9268
S1130CC00F931F93CF93DF93CDB7DEB728970FB65B
S1130CD0F894DEBF0FBECDBF181619060CF44FC032
S1130CE067C02F8138852830310524F46401C21A85
S1130CF0D30A05C0CF80D88438E0C31AD10880E075
S1130D000E949B0181E090E00E940803F894760120
S1130D1086019601422D532D622D732D822D932D24
S1130D200E94CF011414150414F40E94BD0481E040
S1130D30A816B10411F40E94DF0392E0691671044D
S1130D4010F40E945704789489819A810E940803C0
S1130D5080E00E949B01EF81F8853196F887EF834C
S1130D60709709F0BECF2B813C812F5F3F4F3C83AE
S1130D702B838D819E8128173907B1F419C03A83DA
S1130D8029832A013B019E838D831C821B82212C93
S1130D90312C0F2EF7E08F2E912CF02D5B01E8946F
S1130DA0A1F892E0691A71082F8238866401A7CFEE
S1130DB028960FB6F894DEBF0FBECDBFDF91CF915A
S1130DC01F910F91FF90EF90DF90CF90BF90AF9065
S1130DD09F908F907F906F905F904F903F902F9057
S1130DE008958F929F92AF92BF92CF92DF92EF922B
S1130DF0FF920F931F93CF93DF935C016B0180E00D
S1130E000E949B01C0E0D0E00F2EF3E08F2E912CC6
S1130E10F02D1C141D0424F4C4018C1B9D0B01C073
S1130E20CE019401281B390B049679018901AC0188
S1130E30BC010E94CF01C5010E94080380E00E940A
S1130E409B012196C430D10521F7DF91CF911F91E9
S1130E500F91FF90EF90DF90CF90BF90AF909F9055
S1130E608F9008955F926F927F928F929F92AF922C
S1130E70BF92CF92DF92EF92FF920F931F93CF9383
S1130E80DF93542E3901C0E0D0E0062F10E0882E05
S1130E90912C0F2EF7E0AF2EB12CF02D6894CC24BA
S1130EA0C3F8D12C87E058120BC07501EC1AFD0A67
S1130EB0A6014C1B5D0BB801C4010E94B00008C020
S1130EC0AE0141505109B801C4010E94B0007E0135
S1130ED0A701B801C4010E948900C3010E9408034C
S1130EE02196C830D105F1F6DF91CF911F910F9172
S1130EF0FF90EF90DF90CF90BF90AF909F908F9036
S1130F007F906F905F9008958F929F92AF92BF925F
S1130F10CF92DF92EF92FF920F931F93CF93DF93C1
S1130F207C015B016A0180E00E949B0100E010E00B
S1130F30812C912C20C00E94911981709078992362
S1130F4024F401978E6F9F6F0196AC01440F551FD7
S1130F50440F551F440F551F481B590BBE01C801B0
S1130F600E9489002196C830D10529F70F5F1F4FD1
S1130F700830110519F0C82DD92DDDCF1E141F041A
S1130F800CF040C0D0E0912C812C0E9491198C016E
S1130F900E94911987709078992324F40197886F9F
S1130FA09F6F0196BC01C82F891531F1C801877064
S1130FB09078992324F40197886F9F6F0196182FD6
S1130FC08815D1F0772740E050E090E00E94D800E7
S1130FD0882339F0950140E06C2F812F0E9432075D
S1130FE006C0950147E06C2F812F0E943207C6018D
S1130FF00E9408039C2E812EDF5F8D2F90E08E15BA
S11310009F051CF2DF91CF911F910F91FF90EF90FC
S1131010DF90CF90BF90AF909F908F9008952F92C4
S11310203F924F925F926F927F928F929F92AF9274
S1131030BF92CF92DF92EF92FF920F931F93CF93C1
S1131040DF93CDB7DEB7EA970FB6F894DEBF0FBED5
S1131050CDBF9CAB8BAB7AAF69AF2DAB80E00E9468
S11310609B010E94911987709078992324F4019729
S1131070886F9F6F01966C010E9491198770907818
S1131080992324F40197886F9F6F01967C010E9435
S1131090911987709078992324F40197886F9F6F32
S11310A001964C01CE0101961E0121E3220E311C52
S11310B0FC01F182E082D382C282958284823696D8
S11310C0E215F305B1F7EBA9FCA9EF2B09F4AAC2C9
S11310D066246394712C44244394512CAA24A3942D
S11310E0B12C9E012B5031093AAB29AB8FAB98AF91
S11310F00E94911963E070E00E941719892B69F529
S11311000E94911963E070E00E941719009759F446
S11311100E94911963E070E00E9417195C0131E0AC
S1131120A31AB1081AC08130910559F40E9491198B
S113113063E070E00E9417192C01E1E04E1A510897
S11311400CC0029751F40E94911963E070E00E9470
S113115017193C01F1E06F1A71082FEFA216B206BD
S113116099F4E114F10491F40E94911963E070E0A0
S11311700E94171921E030E0019709F020E0A22E27
S1131180B32E31E03EAB03C01EAA01C01EAA8FEFEE
S11311904816580691F4C114D10489F40E94911997
S11311A063E070E00E94171921E030E0019709F034
S11311B020E0422E532E01E003C000E001C000E015
S11311C09FEF69167906A1F48114910499F40E94A1
S11311D0911963E070E00E9417199C0181E090E08E
S11311E02130310509F080E0682E792E11E003C02A
S11311F010E001C010E0E1E0AE16B104A9F4F7E09C
S1131200EF16F10489F40E94911963E070E00E94E2
S11312101719AA24A394B12C019709F0A12CB19415
S1131220A194B10821E02EAB31E043165104A1F49E
S113123087E0C816D10481F40E94911963E070E03C
S11312400E94171944244394512C019709F0412C0E
S113125051944194510801E091E069167104A1F49C
S1131260E7E08E16910481F40E94911963E070E026
S11312700E94171966246394712C019709F0612C5C
S113128071946194710811E0FEA9FF23F1F14114F6
S11312905104E1F427E0C216D10459F0C114D10479
S11312A069F00E94911980FF0DC044244394512C8D
S11312B00DC044244A9455245A9408C044244394A9
S11312C0512C04C044244A9455245A946114710442
S11312D0E1F437E08316910459F08114910469F024
S11312E00E94911980FF0DC066246394712C0DC077
S11312F066246A9477247A9408C066246394712CD3
S113130004C066246A9477247A940023F1F1A1142A
S1131310B104E1F487E0E816F10459F0E114F104B2
S113132069F00E94911980FF0DC0AA24A394B12CE6
S11313300DC0AA24AA94BB24BA9408C0AA24A394D6
S1131340B12C04C0AA24AA94BB24BA9461147104D5
S1131350E1F493E08916910459F08114910469F041
S11313600E94911980FF0DC066246394712C0DC0F6
S113137066246A9477247A9408C066246394712C52
S113138004C066246A9477247A94112389F1411461
S11313905104E1F4E7E0CE16D10459F0C114D104AC
S11313A069F00E94911980FF0DC044244394512C8C
S11313B00DC044244A9455245A9408C044244394A8
S11313C0512C04C044244A9455245A94A114B104C1
S11313D079F4F7E0EF16F10489F1E114F10461F016
S11313E00E94911980FF09C1AA24A394B12C61C061
S11313F0E114F104F1F403C0AA24A394B12CC114A0
S1131400D10449F481149104A9F127E082169104CE
S113141009F0FEC02FC037E0C316D10409F0FDC0A7
S11314208114910439F187E08816910409F0F5C01C
S113143021C097E0E916F104E1F504C0AA24AA94B6
S1131440BB24BA94C114D10449F48114910491F0D9
S1131450E7E08E16910409F0DBC00CC0F7E0CF166C
S1131460D10409F0DAC08114910421F027E0821636
S1131470910449F50E94911963E070E00E941719E4
S1131480009741F08130910541F0029741F4612CBD
S1131490712C05C0A12CB12C02C0412C512CE1149B
S11314A0F10439F43FEFA316B30619F4AA24A39464
S11314B0B12CC114D10439F48FEF4816580619F42D
S11314C044244394512C8114910439F49FEF6916F8
S11314D0790619F466246394712CE7E0EE16F1049E
S11314E041F4F1E0AF16B10421F4AA24AA94BB2478
S11314F0BA9427E0C216D10441F431E043165104F2
S113150021F444244A9455245A9487E0881691047B
S113151041F491E06916710421F466246A947724F5
S11315207A94EA0CFB1CC40CD51C860C971CEDA900
S1131530E13079F4A401B601C7010E94890089ADA4
S11315409AAD0E940803A401B601C7010E94B0002D
S11315504AC0FDA9F23009F055C0A401B601C70183
S11315600E94060189AD9AAD0E9408033CC08081A7
S113157091819783868382819381918780878481F7
S1131580958193878287369729A93AA9E217F307A9
S113159071F7FA82E982DC82CB829E828D820FA966
S11315A018ADF801448155816281738180819181F4
S11315B00E9489000A5F1F4F0215130591F789AD38
S11315C09AAD0E9408030FA918ADF8014481558112
S11315D062817381808191810E94B0000A5F1F4FF4
S11315E00215130591F72BA93CA9215031093CABF5
S11315F02BAB232B09F07CCD15C0AA24AA94BB24C1
S1131600BA9457CF3DA9333071F7FE01B596AFCFE9
S1131610E114F10409F446CF4FCFE114F10409F4C5
S113162041CF51CFEA960FB6F894DEBF0FBECDBFBF
S1131630DF91CF911F910F91FF90EF90DF90CF90AA
S1131640BF90AF909F908F907F906F905F904F90DE
S11316503F902F9008958F929F92AF92BF92CF9216
S1131660DF92EF92FF920F931F93CF93DF937C014E
S1131670EB016130710521F480E00E949B0155C0AB
S11316808FEF0E949B0151C00E949119877090783E
S1131690992324F40197886F9F6F0196C82ED92E41
S11316A00E94911987709078992324F40197886F88
S11316B09F6F0196A82EB92E0E9491198770907879
S11316C0992324F40197886F9F6F0196882E992E91
S11316D0209751F4AC016A2D7B2D8C2D9D2D0E94F9
S11316E0D8008130E1F40DC0C130D105C1F4482FD8
S11316F0592F6A2D7B2D8C2D9D2D0E94D800811190
S11317000EC09E01482D592D6A2D7B2D8C2D9D2DAB
S11317100E94FD00C7010E9408030F5F1F4F0F3F87
S113172081E018070CF4B0CF03C000E010E0ACCFA8
S1131730DF91CF911F910F91FF90EF90DF90CF90A9
S1131740BF90AF909F908F9008958F929F92AF9289
S1131750BF92CF92DF92EF92FF920F931F93CF939A
S1131760DF93181619060CF046C06C01E12CF12C1D
S1131770812C912C0E94911983709078992324F4E0
S113178001978C6F9F6F01968C01181619061CF532
S1131790C82DD92D0E9491195C010E949119BC0198
S11317A067707078772334F461507109686F7F6FC4
S11317B06F5F7F4FC50187709078992324F4019758
S11317C0886F9F6F019647E050E00E948900219640
S11317D0C017D107F9F688EE93E00E9408036FEF73
S11317E07FEF8AE70E941A038FEFE81AF80AEC14D5
S11317F0FD0409F0BFCFDF91CF911F910F91FF90AE
S1131800EF90DF90CF90BF90AF909F908F9008950E
S11318107F928F929F92AF92BF92CF92DF92EF927C
S1131820FF920F931F93CF93DF93182FD62FC72FB9
S11318306A0180E00E949B01ED2EFC2EA12CB12CAC
S1131840712C00E00F2EF7E08F2E912CF02D35C077
S1131850C114D10449F0F701EC0FFD1F80819401FC
S1131860281B3109C90105C0F701EC0FFD1F808158
S113187090E01A3731F4AC01BE01C5010E94890021
S11318800EC0193731F4AE01BC01C5010E948900B4
S113189006C0183721F4A501BE010E9489002196D3
S11318A0C830D105A9F63FEFA31AB30A88E0E80EC1
S11318B0F11C28E0A216B10419F0C72DD02FC8CF0F
S11318C0DF91CF911F910F91FF90EF90DF90CF9018
S11318D0BF90AF909F908F907F900895EF92FF926A
S11318E00F931F93CF93DF938C01FC01A62FB72F87
S11318F0BC01605C7F4F7F0190819D014C919417E6
S113190010F49F5F9083E70198811196E901288183
S1131910291718F49150E70198833196E617F707D1
S113192051F740E050E0B8018AE70E94080CDF91CB
S1131930CF911F910F91FF90EF9008952F923F92B6
S11319404F925F926F927F928F929F92AF92BF92CB
S1131950CF92DF92EF92FF920F931F93CF93DF9377
S1131960CDB7DEB7C058D1090FB6F894DEBF0FBEAD
S1131970CDBF4C011B018E010F5F1F4F7E0181E41F
S1131980E80EF11C67016894BB24B2F8F801B19227
S11319908F010E94911987709078992324F40197FC
S11319A0886F9F6F0196F70181937F010C151D05C8
S11319B069F708E010E0E22CF32C4AE7BE016F5B04
S11319C07F4FCE0101960E946E0C7E2C6F2C8E2DC3
S11319D09F2D0E9408030150110979F71814190466
S11319E00CF04AC0220C331C220C331CA12CB12C49
S11319F06E01F1E4CF0ED11C4C2C5D2C3AC04AE7A9
S1131A00642D752DCE0101960E946E0C872D962DA6
S1131A100E9408030150110991F7C1010E940803B3
S1131A206894EE24E5F8F12C0E9491198C010E942F
S1131A3091190F731078112334F401501109006CBB
S1131A401F6F0F5F1F4FF601E00FF11F8770907833
S1131A50992324F40197886F9F6F0196808381E016
S1131A60E81AF10809F7EFEFAE1ABE0AA814B90490
S1131A7019F008E010E0C3CFC058DF4F0FB6F89458
S1131A80DEBF0FBECDBFDF91CF911F910F91FF90AD
S1131A90EF90DF90CF90BF90AF909F908F907F900A
S1131AA06F905F904F903F902F9008953F924F9288
S1131AB05F926F927F928F929F92AF92BF92CF92DA
S1131AC0DF92EF92FF920F931F93CF93DF93CDB7E3
S1131AD0DEB7C658D1090FB6F894DEBF0FBECDBF2E
S1131AE0982E862E772ECB57DF4F59834883C558BF
S1131AF0D0405901CE010196CD57DF4F9983888399
S1131B00C358D040DE01AF5BBF4FCF57DF4FB9831F
S1131B10A883C158D0408D016D017C01D7011D926D
S1131B207D010E94911987709078992324F401977C
S1131B30886F9F6F0196F60181936F01E016F1069D
S1131B4069F76894EE24E3F8F12CCF57DF4F38801F
S1131B50C158D040CE57DF4F4880C258D040CD57EF
S1131B60DF4F5880C358D040CC57DF4F6880C458EB
S1131B70D040C82CD72C1BC080819D91891710F4AC
S1131B808F5F808331960E171F07B1F7A501BE0141
S1131B906F5F7F4F892D0E94080C8C2C7D2C8C2D1F
S1131BA09D2D0E940803F1E0EF1AF10829F0A32DFE
S1131BB0B42DE52DF62DE0CF9E012F573F4FFE01AA
S1131BC0EF5BFF4F87E08193E217F307E1F7CB5711
S1131BD0DF4F88819981C558D0400E9408036894DA
S1131BE0EE24E3F8F12CCF57DF4FD880C158D04012
S1131BF0CE57DF4FC880C258D040CD57DF4F6880E2
S1131C00C358D040CC57DF4F5880C458D04022C06E
S1131C10AF018081D9019D919D01891710F48F5FD7
S1131C208083DA018C91981710F481508C9331964B
S1131C300E171F0769F7A501BE016F5F7F4F892D3E
S1131C400E94080C882D972D0E940803B1E0EB1A1E
S1131C50F10829F02D2D3C2DE62DF52DD9CFCA57AD
S1131C60DF4F0FB6F894DEBF0FBECDBFDF91CF912B
S1131C701F910F91FF90EF90DF90CF90BF90AF90A6
S1131C809F908F907F906F905F904F903F900895BA
S1131C902F923F924F925F926F927F928F929F9278
S1131CA0AF92BF92CF92DF92EF92FF920F931F9366
S1131CB0CF93DF93CDB7DEB7C258D1090FB6F894EE
S1131CC0DEBF0FBECDBF282E7B01CF57DF4F598318
S1131CD04883C158D0405901CE018F5B9F4F8E017C
S1131CE00F571F4FFC011192E017F107E1F7812C08
S1131CF0912CCC24C394D12C382E492E512C612CF8
S1131D000F2EF7E07F2EF02D81E0A816B10409F51F
S1131D1076C00E9491198F739078992324F40197C7
S1131D20806C9F6F01969C01E1E4F0E0EC0FFD1FD5
S1131D30E80FF91F80818111ECCF9FEF891A990A6E
S1131D40E1E4F0E0EC0FFD1FE20FF31F81E080837C
S1131D5014C092E0A916B10481F480E488169104B9
S1131D6064F4E1E4F0E0EC0FFD1FE80DF91D80815F
S1131D708F5F80839FEF891A990AE32DF42D252D17
S1131D80362DDF0180819FEF980F963010F48F5F1E
S1131D90808331968C91873011F42F5F3F4F0E175B
S1131DA01F0779F72034310511F4C52CD62CDE0138
S1131DB01196E32DF42DE114F10419F480818C9330
S1131DC004C08081972D981B9C93319611960E1711
S1131DD01F0789F7CF57DF4F88819981C158D040B9
S1131DE00E940803452D562DBE016F5F7F4F822D43
S1131DF00E94080CC114D10409F086CF06C080E407
S1131E00881691040CF485CFB8CFCE57DF4F0FB6A8
S1131E10F894DEBF0FBECDBFDF91CF911F910F911C
S1131E20FF90EF90DF90CF90BF90AF909F908F90F6
S1131E307F906F905F904F903F902F9008959F9266
S1131E40AF92BF92CF92DF92EF92FF920F931F93C4
S1131E50CF93DF937C0180E00E949B0100E010E0BF
S1131E60912CA12CCFEFDE2CDF2D16C0FC01E20F4C
S1131E70F31FE652FF4FC0832F5F3F4F28303105D9
S1131E80A9F7CD2CBD2E8D2D9D2F0E9408030F5F29
S1131E901F4F0830110551F0292D3A2DC801880F24
S1131EA0991F880F991F880F991FE0CFC701880FCA
S1131EB0991F8E0D9F1D0E940803C0E0D0E000E032
S1131EC010E013C0FA01E20FF31FE652FF4F108235
S1131ED02F5F3F4F28303105A9F78C2D9B2D0E9491
S1131EE008032196C830D10551F0202F312FAE01BF
S1131EF0440F551F440F551F440F551FE3CFDF9167
S1131F00CF911F910F91FF90EF90DF90CF90BF90F2
S1131F10AF909F9008954F925F926F927F928F92AD
S1131F209F92AF92BF92CF92DF92EF92FF920F9364
S1131F301F93CF93DF9318161906F4F148C0E42CCD
S1131F40F52C0E9491198C010E949119EC010E94B8
S1131F509119A80147705078552334F44150510920
S1131F60486F5F6F4F5F5F4FBE0167707078772374
S1131F7034F461507109686F7F6F6F5F7F4F8770B2
S1131F809078992324F40197886F9F6F01960E949B
S1131F9089008FEFE81AF80ACE14DF0494F6C3011F
S1131FA00E94080380E00E949B018FEFA81AB80AE0
S1131FB0A814B90441F40BC03A016B014C01A12CE3
S1131FC0B12C412C512CDD200CF0B9CFE8CFDF919E
S1131FD0CF911F910F91FF90EF90DF90CF90BF9022
S1131FE0AF909F908F907F906F905F904F900895E7
S1131FF0CF93DF93C1E0D0E048EC50E0BE0185E030
S113200090E00E948B0F2196C431D105A9F748ECCA
S113201050E0BE0185E090E00E948B0F2197B9F754
S1132020DF91CF910895CF93DF93EC01CA01DD23B3
S1132030DCF0FE0120E030E0E830F1057CF42830EB
S1132040310564F4DF01AA0FBB1FAA0FBB1FAA0F3F
S1132050BB1FA20FB31FA652BF4F6C932F5F3F4FFE
S11320603197C217D30744F70E940803CE01DF91CA
S1132070CF9108950F931F93CF93DF93EB018A01C0
S1132080892B49F080E190E0AE01B8010E94131061
S11320900197D2F70AC080E090E0AE01B8010E9437
S11320A01310019680319105C4F3DF91CF911F91F4
S11320B00F9108952F923F924F925F926F927F9269
S11320C08F929F92AF92BF92CF92DF92EF92FF9244
S11320D00F931F93CF93DF93CDB7DEB766970FB6F9
S11320E0F894DEBF0FBECDBF9A8789871B015E8738
S11320F04D87388B2F871A8B098B4F3F5F4F31F4F5
S11321000F2EF7E04F2E512CF02D02C0412C512CF4
S113211089E090E0AC01E985FA854E1B5F0B5C8792
S11321204B870E9491196B857C850E9417199C83AB
S11321308B830E9491196B857C850E9417199E835D
S11321408D832F853889121613060CF09DC01886CE
S11321501F8249855A855C8B4B8B0E9491198C0197
S11321600E94911963E070E00E9417199C012150AC
S11321703109C80163E070E00E9417190197EB81EF
S1132180FC818E0F9F1F181619063CF44B855C8545
S11321908417950714F49C838B838D819E81280F6B
S11321A0391F121613063CF4EB85FC852E173F07E6
S11321B014F43E832D836D857E85822D0E941A033F
S11321C029853A85121613060CF04FC08B819C8129
S11321D04901880E991E7C014D815E815A83498391
S11321E08A01EB89FC890E0F1F1F5C01A41AB50A32
S11321F03A01681A790A31C0FAE72F16310439F422
S1132200A2016D897E89C7010E94890017C029E750
S11322102216310439F44D895E89B201C7010E9446
S113222089000CC038E72316310441F44D895E89D6
S11322304A0D5B1DB601C2010E9489004D895E8969
S11322404F5F5F4F5E8B4D8B40175107A9F65FEFD1
S1132250E51AF50AE814F90441F089819A816301C9
S1132260CE0CDF1C9E8B8D8BC7CF89899A890E94E7
S11322700803EF81F8853196F887EF832F85388935
S1132280E217F30709F069CF66960FB6F894DEBF3C
S11322900FBECDBFDF91CF911F910F91FF90EF90B3
S11322A0DF90CF90BF90AF909F908F907F906F9072
S11322B05F904F903F902F9008952F923F924F92AE
S11322C05F926F927F928F929F92AF92BF92CF92C2
S11322D0DF92EF92FF920F931F93CF93DF93CDB7CB
S11322E0DEB7E4970FB6F894DEBF0FBECDBF20E291
S11322F0E4E6F0E0DE01119601900D922A95E1F7F3
S1132300181619060CF40FC22BC26114710469F477
S11323102FEF421A520A34E04316510449F449A4F7
S11323205AA466246394712C03C08FEF481A580A88
S113233080E090E084199509880F991F880F991FF0
S1132340880F991F5201AA0CBB1CAA0CBB1CAA0C17
S1132350BB1CC9A4DAA44F96E1E0F0E0EC0FFD1F2A
S1132360E80FF91FFAA3E9A330C0402F692D822D8D
S11323700E9487168823D1F06114710481F4F80156
S1132380EA0DFB1D21E030E02C0F3D1FE20FF31F8F
S1132390608170E0A601C8010E94890007C0F701AE
S11323A0608170E0A601C8010E9489000F5F1F4F81
S11323B0F1E0EF1AF10808301105B9F62FEFC21A4F
S11323C0D20A38E0C316D10439F0E9A0FAA0082DE6
S11323D01DA1932C9C18C9CF1DA50EA5812F902F4C
S11323E00E94080380E00E949B018BA19CA101979D
S11323F09CA38BA3892B09F088CF1BA70CA797E07C
S11324009FA318A6412C512C612C712C8AA861140D
S1132410710469F4EFEF4E1A5E0AF4E04F165104AA
S113242049F449A45AA466246394712C03C02FEF81
S1132430421A520A80E090E084199509880F991F86
S1132440880F991F880F991FA9A4BAA44F96E1E099
S1132450F0E0EC0FFD1FE80FF91FFAA3E9A3C20196
S1132460880F991F880F991F880F991F21E030E06A
S11324702C0F3D1F280F391F3CA32BA32DC0432D28
S1132480401B692D822D0E948716882391F06114C8
S1132490710441F4F7018081A501B80190E00E9424
S11324A0890007C0F6018081A501B80190E00E946F
S11324B0890001501109F1E0CF1AD1082FEFE21A77
S11324C0F20A0F3F3FEF1307D1F68FEFA81AB80AAD
S11324D098E0A916B10449F0C9A0DAA0EBA0FCA0C9
S11324E00EA1182D932C9A18CACF8BA59CA50E94D7
S11324F0080380E00E949B01EFA1F8A53197F8A79B
S1132500EFA3EF2B09F083CFF7E0FBA31CA2412C30
S1132510512C612C712C89A86114710469F42FEF7A
S1132520421A520A34E04316510449F449A45AA405
S113253066246394712C03C08FEF481A580A80E014
S113254090E084199509880F991F880F991F880FA7
S1132550991F5201AA0CBB1CAA0CBB1CAA0CBB1CC5
S1132560C9A4DAA44F96E1E0F0E0EC0FFD1FE80FF8
S1132570F91FFAA3E9A331C0432D401B692D822D15
S11325800E9487168823D1F06114710481F4F80144
S1132590EA0DFB1D21E030E02C0F3D1FE20FF31F7D
S11325A0608170E0A601C8010E94890007C0F7019C
S11325B0608170E0A601C8010E9489000F5F1F4F6F
S11325C0F1E0EF1AF10808301105B1F62FEFC21A45
S11325D0D20A38E0C316D10439F0E9A0FAA0082DD4
S11325E01DA1932C9C18C8CF8BA59CA50E94080301
S11325F080E00E949B018BA19CA101979CA38BA3CB
S1132600892B09F089CF97E09FA318A6412C512C60
S1132610612C712C8AA86114710469F4EFEF4E1ACD
S11326205E0AF4E04F16510449F449A45AA46624FE
S11326306394712C03C02FEF421A520A80E090E099
S113264084199509880F991F880F991F880F991F5E
S1132650A9A4BAA44F96E1E0F0E0EC0FFD1FE80F47
S1132660F91FFAA3E9A3C201880F991F880F991FC4
S1132670880F991F21E030E02C0F3D1F280F391FD0
S11326803CA32BA32CC0402F692D822D0E948716BA
S1132690882391F06114710441F4F7018081A5014C
S11326A0B80190E00E94890007C0F6018081A5016D
S11326B0B80190E00E94890001501109F1E0CF1A9D
S11326C0D1082FEFE21AF20A0F3F3FEF1307D9F6B2
S11326D08FEFA81AB80A98E0A916B10449F0C9A066
S11326E0DAA0EBA0FCA00EA1182D932C9A18CBCF46
S11326F08BA59CA50E94080380E00E949B01EFA18A
S1132700F8A53197F8A7EFA3EF2B09F084CF2FA5F5
S113271038A92F5F3F4F38AB2FA78BA99CA9281747
S11327203907A9F41DC0242E9CAB8BAB18AA1FA695
S11327300F2EF7E03F2EF02D19A61AA66DA77EA73F
S113274090E099ABE0E0EDA3F7E0FEA31AAA27E03E
S11327502BA31CA2412C512C612C712C89A8D5CD02
S1132760E4960FB6F894DEBF0FBECDBFDF91CF91D4
S11327701F910F91FF90EF90DF90CF90BF90AF909B
S11327809F908F907F906F905F904F903F902F908D
S113279008958F929F92AF92BF92CF92DF92EF9261
S11327A0FF920F931F93CF93DF935C018B01015032
S11327B01109101611060CF03FC0080F191F6C0107
S11327C0812C912C22C0F7018081682F6F7070E0FA
S11327D082958F70AE0190E00E94D800F80190813C
S11327E0282F30E0692F6F7070E0892F82958F70E9
S11327F0AE0190E00E94FD002196C830D10519F782
S1132800015011090C151D05B9F0C82DD92D7801F9
S1132810E1E0EE1AF108D7CFF5018081682F6F70DF
S113282070E082958F70AE0190E00E94B000219616
S1132830C830D10589F703C0C0E0D0E0EDCFDF9107
S1132840CF911F910F91FF90EF90DF90CF90BF90A9
S1132850AF909F908F9008954F925F926F927F9266
S11328608F929F92AF92BF92CF92DF92EF92FF929C
S11328700F931F93CF93DF93CDB7DEB76C970FB64B
S1132880F894DEBF0FBECDBF7C016B014CE150E07C
S1132890BE016F5F7F4F80E00E9449161E141F0423
S11328A0DCF500E010E06894882482F8912C0F2E67
S11328B0F3E0AF2EB12CF02D0F2EF7E06F2EF02D9C
S11328C0712C412C512C0E949119B5010E941719A9
S11328D0AC0141505109480D591D4830510514F0BF
S11328E0462D572D4A01552314F4842C952C6CE164
S11328F070E0CE0101960E94C913A401662D772DC4
S1132900842D952D0E948900C6010E9408030F5F43
S11329101F4F0E151F05B9F66C960FB6F894DEBF5F
S11329200FBECDBFDF91CF911F910F91FF90EF901C
S1132930DF90CF90BF90AF909F908F907F906F90DB
S11329405F904F900895CF92DF92EF92FF920F9392
S11329501F93CF93DF93CDB7DEB760970FB6F8948C
S1132960DEBF0FBECDBF7C016B0140E150E0BE0174
S11329706F5F7F4F81E00E9449161E141F040CF5FF
S113298000E010E0A80147705078552334F441501A
S11329905109486F5F6F4F5F5F4F60E070E084E004
S11329A090E00E948900C6010E9408036CE170E077
S11329B0CE0101960E94C9130F5F1F4F0E151F050C
S11329C009F760960FB6F894DEBF0FBECDBFDF9156
S11329D0CF911F910F91FF90EF90DF90CF900895CA
S11329E02F923F924F925F926F927F928F929F921B
S11329F0AF92BF92CF92DF92EF92FF920F931F9309
S1132A00CF93DF93CDB7DEB7A5970FB6F894DEBFAB
S1132A100FBECDBF8AA39BA38B014CE150E0BE0146
S1132A206F5F7F4F80E00E944916F8018081882300
S1132A3009F46EC098012F5F3F4F3DA32CA34E01B4
S1132A4032E2830E911C0F2EF7E0CF2ED12CF02D05
S1132A50612C712C4C2C5D2C2AA03BA0BE01635E22
S1132A607F4F0E945F16CE014D965C01F501E19007
S1132A705F01062D172DF12CC601801B910B9701C8
S1132A8002C0359527958A95E2F720FF08C0A80172
S1132A90642D752D862D972D0E94890007C0A801ED
S1132AA0642D752D862D972D0E94B0000F5F1F4F4A
S1132AB00830110509F76CE170E0CE0101960E941F
S1132AC0C913822D932D0E940803A814B90471F62A
S1132AD06CE170E0CE0101960E94C913822D932D02
S1132AE00E940803ECA1FDA18191FDA3ECA3811137
S1132AF0B5CF0EC06CE170E0CE0101960E94C913FF
S1132B008AA19BA10E9408030150110999F703C0EF
S1132B100CE110E0EFCFA5960FB6F894DEBF0FBE20
S1132B20CDBFDF91CF911F910F91FF90EF90DF9078
S1132B30CF90BF90AF909F908F907F906F905F9059
S1132B404F903F902F9008952F923F924F925F9213
S1132B506F927F928F929F92AF92BF92CF92DF92A9
S1132B60EF92FF920F931F93CF93DF93CDB7DEB70E
S1132B706C970FB6F894DEBF0FBECDBF582E492E0A
S1132B80C62E4A014CE150E0BE016F5F7F4F80E0EA
S1132B900E944916181419040CF444C05EC0422D56
S1132BA06D2D601B8C2D0E948716882341F0A8018F
S1132BB067E070E08E2D9F2D0E94890007C0A80158
S1132BC067E070E08E2D9F2D0E94B0000F5F1F4FB5
S1132BD00830110521F7862D972D0E9408036CE11A
S1132BE070E0CE0101960E94C913239488E0281650
S1132BF019F00E2D1F2DD3CF04E110E0862D972D53
S1132C000E9408036CE170E0CE0101960E94C91392
S1132C100150110999F78FEFA81AB80AA814B9043A
S1132C2061F41BC0A12CB12C312C0F2EF7E0DF2E48
S1132C30F02DE12CF12C652C742C232CDACF852D6E
S1132C40942D0E9408036CE170E0CE0101960E946D
S1132C50C9130150110999F703C00AE010E0EFCF3E
S1132C606C960FB6F894DEBF0FBECDBFDF91CF9147
S1132C701F910F91FF90EF90DF90CF90BF90AF9096
S1132C809F908F907F906F905F904F903F902F9088
S1132C900895813019F4ECE1F0E002C0E0E0F0E0E6
S1132CA0141615065CF4E657FF4FDB01640F751F1D
S1132CB084918D933196A617B707D1F70895EF92B3
S1132CC0FF920F931F93CF93DF93805290E0EC0118
S1132CD0CC0FDD1FCC0FDD1F8C0F9D1FEC01C05DE1
S1132CE0DF4F8B017B0185E0E80EF11CCE010E94D1
S1132CF0A119F80181938F012196EE15FF05B1F713
S1132D00DF91CF911F910F91FF90EF900895CF9392
S1132D10C42F70E09B0148E0849F200D311D1124D5
S1132D20C901805090400E94A11990E002C095957D
S1132D308795CA95E2F78170CF910895EF92FF923B
S1132D400F931F93CF93DF93EC0180E00E949B01CC
S1132D50CB31D10508F0FCC1FE01E65DFF4F0C94B8
S1132D602B1984E690E00E94A50BF6C140ED57E0D4
S1132D706CED70E084E190E00E948407EDC161E0B5
S1132D8070E085E090E00E942B0B60E070E085E04D
S1132D9090E00E942B0B61E070E085E090E00E94DF
S1132DA02B0B60E070E085E090E00E942B0BD4C117
S1132DB068EE73E084E190E00E949E0CCDC108EEC1
S1132DC013E024E630E04FEF5FEF6AE770E082E063
S1132DD090E00E945A10C0C10E94CD05BDC1C0E060
S1132DE04C2F447050E06C2F637070E022EC31E0A3
S1132DF081E090E00E945206CF5FC83089F760E01E
S1132E0070E080E293E00E94F10661E070E080E20D
S1132E1093E00E94F10660E070E080E293E00E949B
S1132E20F10661E070E080E293E00E94F10694C153
S1132E3060E971E08AE790E00E949E0560E971E034
S1132E4088E790E00E949E0560E971E089E790E0E0
S1132E500E949E0560E971E08AE790E00E949E0569
S1132E6060E971E088E790E00E949E0560E971E006
S1132E7089E790E00E949E0580E00E949B016CC15E
S1132E8080E00E949B014FEF50E060E273E080E03D
S1132E9090E00E943A1040E050E060E273E080E08D
S1132EA090E00E943A104FEF50E060E273E081E05E
S1132EB090E00E943A104FEF50E060E273E081E04E
S1132EC090E00E943A1048C120E030E048E853E125
S1132ED066E272E08AE70E94560D21E030E048E89D
S1132EE053E166E272E08AE70E94560D20E030E08A
S1132EF048E853E166E272E08AE70E94560D21E059
S1132F0030E048E853E166E272E08AE70E94560D39
S1132F1020E030E048E853E166E272E088E70E948E
S1132F20560D21E030E048E853E166E272E088E7BC
S1132F300E94560D20E030E048E853E166E272E07A
S1132F4089E70E94560D21E030E048E853E166E24B
S1132F5072E089E70E94560DFFC08CEB92E00E945C
S1132F601F0FFAC008EE13E024E630E041E050E021
S1132F706AE770E081E090E00E945A10EDC084E8B6
S1132F8090E00E940C05E8C080E00E949B0104E1EF
S1132F9010E00E9491197C010E949119EC010E9499
S1132FA09119A70143705078552334F441505109C5
S1132FB04C6F5F6F4F5F5F4FBE0163707078772314
S1132FC034F4615071096C6F7F6F6F5F7F4F837052
S1132FD09078992324F401978C6F9F6F01960E9437
S1132FE0890001501109A9F6B7C021E030E048EC8E
S1132FF050E060E070E08AE70E94480E8CED95E0B6
S11330000E94080321E030E048EC50E061E070E009
S11330108AE70E94480E8CED95E00E94080322E0A6
S113302030E048EC50E060E070E08AE70E94480E2F
S11330308CED95E00E94080322E030E048EC50E07B
S113304061E070E08AE70E94480E8CED95E00E94F2
S1133050080321E030E048EC50E060E070E089E7EC
S11330600E94480E8CED95E00E94080321E030E0B8
S113307048EC50E061E070E089E70E94480E8CED76
S113308095E00E94080368C022E041E068E572E030
S11330908AEF90E00E940F085FC040E068EE73E0A2
S11330A082E090E00E945D1157C064EF71E084E615
S11330B090E00E94A31450C043E050E062E08CEB27
S11330C092E00E94A41548C041E068EE73E082E0FB
S11330D090E00E945D1140C062E970E088EE93E0E8
S11330E00E94F01439C064EF71E088EC90E00E9413
S11330F02C1432C008EE13E024E630E04FEF5FEF0B
S11331006AE770E081E090E00E945A1025C042E036
S113311068EE73E082E090E00E945D111DC00E94A1
S1133120F80F1AC008EE13E024E630E04FEF5FEF2B
S11331306AE770E081E090E00E945A100DC023E03D
S113314041E068E572E08AEF90E00E940F0804C055
S113315085E990E00E940C05DF91CF911F910F91BA
S1133160FF90EF9008958FEF8ABB84BB1BBA15BA0A
S11331708AE083BD85B58D6085BD14BC89B7806840
S113318089BF789481E080931B0100E010E0C02F98
S1133190D12FCE010E949E162196CB31D105C9F7BD
S11331A0F6CF1F920F920FB60F9211242F933F93D5
S11331B08F939F93EF93FF9315BA20E030E08091B3
S11331C01B01F90198E0899FE00DF11D1124E652DD
S11331D0FF4F80818BBB88B391E0920F9770887FFB
S11331E0892B88BB2F5F3F4F2830310541F7209151
S11331F01B0181E090E002C0880F991F2A95E2F735
S113320085BB80911B018F5F80931B0180911B0103
S1133210883011F410921B01FF91EF919F918F91CF
S11332203F912F910F900FBE0F901F90189597FB11
S1133230072E16F4009407D077FD09D00E943119A7
S113324007FC05D03EF4909581959F4F08957095A5
S113325061957F4F0895EE0FFF1F0590F491E02DC7
S11332600994AA1BBB1B51E107C0AA1FBB1FA617C9
S1133270B70710F0A61BB70B881F991F5A95A9F71B
S113328080959095BC01CD0108958F929F92AF9245
S1133290BF92CF92DF92EF92FF92CF93DF93EC0134
S11332A0688179818A819B81611571058105910508
S11332B021F464E279ED8BE597E02DE133EF41E011
S11332C050E00E94A91949015A019B01AC01A7EAE7
S11332D0B1E40E94C8196B017C01ACEEB4EFA50106
S11332E094010E94D619DC01CB018C0D9D1DAE1DED
S11332F0BF1DB7FF03C00197A109B0488883998314
S1133300AA83BB839F77DF91CF91FF90EF90DF90EB
S1133310CF90BF90AF909F908F9008950E944519D1
S1133320089580E690E00E9445190895A0E0B0E079
S11333308093600090936100A0936200B093630057
S11333400895E199FECF9FBB8EBBE09A99278DB378
S11333500895052E97FB1EF400940E94C01957FD92
S113336007D00E94DB1907FC03D04EF40C94C0195B
S113337050954095309521953F4F4F4F5F4F08959D
S113338090958095709561957F4F8F4F9F4F0895CD
S11333900E94FD19A59F900DB49F900DA49F800DD0
S11333A0911D11240895B7FF0C94C8190E94C819DF
S11333B0821B930B0895A1E21A2EAA1BBB1BFD01CD
S11333C00DC0AA1FBB1FEE1FFF1FA217B307E40700
S11333D0F50720F0A21BB30BE40BF50B661F771F58
S11333E0881F991F1A9469F7609570958095909538
S11333F09B01AC01BD01CF010895A29FB001B39F11
S1133400C001A39F700D811D1124911DB29F700DE9
S10F3410811D1124911D0895F894FFCF34
S113341C0100000000010203040506070101020378
S113342C040506060202030304040505030303034F
S113343C04040404494E53545255435441424C45DC
S10D344C53005447004641494C0068
S9030000FC
